:020000040800F2
:1000000000000220AD020008B3020008B702000899
:10001000290300082D0300087503000800000000F4
:10002000000000000000000000000000BD03000808
:10003000C103000800000000C50300080B120008FF
:10004000750F0008750F0008750F0008750F000880
:10005000750F0008750F0008750F0008750F000870
:10006000750F0008750F0008750F0008750F000860
:10007000750F0008750F0008750F0008750F000850
:10008000750F0008750F0008750F000800000000CC
:10009000000000000000000000000000750F0008D4
:1000A000750F0008750F0008750F0008750F000820
:1000B000750F0008750F0008750F0008750F000810
:1000C000750F0008750F0008750F0008750F000800
:1000D000750F0008750F0008750F0008000000007C
:1000E000750F0008750F0008750F0008000000006C
:1000F000000000000000000000000000750F000874
:1001000000000000750F0008750F0008750F00084B
:1001100000000000000000000000000000000000DF
:10012000750F0008750F0008750F0008750F00089F
:10013000750F000800000000000000000000000033
:10014000000000000000000000000000750F000823
:10015000750F0008750F0008750F0008750F00086F
:10016000750F0008750F0008000000000000000077
:10017000000000000000000000000000000000007F
:1001800000000000750F00080000000000000000E3
:10019000750F0008750F000800B583B000F050FE21
:1001A000304B314A1360314A1360314B314A324986
:1001B0008B4204D21168196004330432F7E72A4BEA
:1001C0001A682E4B9A4200D0FEE7284B1A682C4B37
:1001D0009A42F9D1234B2B4A13602B4A13602B4BC5
:1001E00002E000221A600433294A9342F9D3254BD6
:1001F0001B6813B9244B1B6803B1FEE700F02CFE0B
:10020000694601A800F098FD224C234BE41AA41083
:100210000025AC4214DC214C214BE41AA41000252B
:10022000AC4213DC0099019800F074FF05461D4CA8
:100230001D4BE41AA410002C0EDC284600F058FDDB
:10024000154B53F8253098470135E2E7144B53F826
:10025000253098470135E3E7013C134B53F8243030
:100260009847E8E7BABADECA00000020E0010020A3
:1002700000000020383C0008E401002078563412C9
:1002800032547698E401002080020020E40100202E
:100290008402002000040008000400080004000894
:1002A00000040008000400080004000808B5FFF777
:1002B00073FF00BEFEE71EF0040F0CBFEFF30880D3
:1002C000EFF309807146414A10472DE9F04182B0B1
:1002D00004468846124B5E6B9F6B9D6A1B6B13F046
:1002E000020F03D00E4BDB6A002B0CDB0D4800F035
:1002F0005BFDCDF800803B4632462946204600F0A3
:10030000AFFD00BEFEE74BF6AB6100F023FE002818
:10031000ECD0034B4FF00042DA6202B0BDE8F0814E
:1003200000ED00E0C439000800BEFEE71EF0040F37
:100330000CBFEFF30880EFF309807146244A1047A1
:100340002DE9F04182B004468846084B5E6B9F6BF6
:100350009D6A074800F028FDCDF800803B463246F4
:100360002946204600F07CFD00BEFEE700ED00E0DF
:10037000D43900081EF0040F0CBFEFF30880EFF330
:1003800009807146134A10472DE9F04182B00446B6
:100390008846084B5E6B9F6B9D6A074800F004FD22
:1003A000CDF800803B4632462946204600F058FDF5
:1003B00000BEFEE700ED00E0E039000800BEFEE709
:1003C00000BEFEE700BEFEE770470000CB0200085B
:0803D000410300088903000845
:1003D800383C000800000020E4010020383C0008F8
:1003E8000000001000000010E4010020840200203A
:0803F8000000001000000010DD
:1004000010B50446074B1868074BA3FB0030800962
:1004100000F08CF8002221464FF0FF3000F052F837
:10042000002010BD0C000020D34D621008B50B4B0E
:100430001A6842F400721A601A6842F480621A6004
:100440001A6842F480721A60032000F029F8002034
:10045000FFF7D6FF00F0AAFE002008BD003C0240D6
:10046000024A136801331360704700BF780200200E
:10047000014B1868704700BF7802002030B583B088
:100480000190FFF7F5FF0546019CB4F1FF3F00D056
:100490000134FFF7EDFF401BA042FAD303B030BD9B
:1004A000074AD36823F4E0631B041B0C000200F42A
:1004B000E060184340F0BF6040F40030D060704707
:1004C00000ED00E030B4174BDB68C3F30223C3F147
:1004D0000704042C28BF04241D1D062D18D9033B36
:1004E0004FF0FF3505FA04F421EA0401994005FABA
:1004F00003F322EA0303194300280BDB0901C9B205
:1005000000F1604000F5614080F8001330BC704796
:100510000023E5E700F00F000901C9B2024B1954AE
:10052000F4E700BF00ED00E014ED00E00138B0F1A9
:10053000807F0AD2064B5860064AF02182F82310C9
:100540000020986007221A6070470120704700BFA2
:1005500010E000E000ED00E0042805D0054A136833
:1005600023F0040313607047024A136843F0040346
:100570001360704710E000E0704708B5FFF7FCFF1C
:1005800008BD000000230F2B00F2C580F0B482B03C
:1005900039E0042200E00022B2403A4302345E4EC9
:1005A00046F824205D4A1468EA4302EA04064F68CC
:1005B00017F4803F01D045EA0406584C2660646871
:1005C00002EA04064F6817F4003F01D045EA04062A
:1005D000524C6660A46802EA04064F6817F4801F54
:1005E00001D045EA04064D4CA660E46822404E68FE
:1005F00016F4001F01D045EA0402484CE2600133C2
:100600000F2B00F2858001229A400C6804EA020553
:10061000AA42F4D14C68022C01D0122C10D1DE0871
:10062000083650F826C003F00704A7000F24BC408A
:100630002CEA040C0C69BC4044EA0C0440F8264047
:1006400004685F000326BE40F64306EA040C4C68CB
:1006500004F00304BC4044EA0C0404604C6804F158
:10066000FF3CBCF1010F03D9112C01D0122C10D189
:10067000846806EA040CCC68BC4044EA0C0484603C
:10068000446824EA02024C68C4F300149C401443FA
:100690004460C26816408A68BA403243C2604A6801
:1006A00012F0805FABD0002201921D4A546C44F4DA
:1006B00080445464526C02F480420192019A9C0876
:1006C000A61C154A52F8267003F0030296000F226A
:1006D000B24027EA0207134A90423FF45CAF02F5AA
:1006E000806290420ED002F5806290420CD002F5FA
:1006F000806290420AD002F5806290423FF449AF96
:10070000072249E7012247E7022245E7032243E7A0
:1007100002B0F0BC7047704700380140003C014017
:10072000003802400000024012B90904816170479C
:10073000816170474369594041617047002800F06A
:10074000AB8130B583B00446036813F0010F3BD092
:10075000A74B9B6803F00C03042B2CD0A44B9B6885
:1007600003F00C03082B21D06368B3F5803F4FD012
:10077000B3F5A02F52D09E4B1A6822F480321A6033
:100780001A6822F480221A606368002B50D0FFF7A9
:100790006FFE0546964B1B6813F4003F14D1FFF71C
:1007A00067FE401B6428F5D903207AE1904B5B6813
:1007B00013F4800FD8D08E4B1B6813F4003F03D086
:1007C0006368002B00F06A81236813F0020F55D094
:1007D000874B9B6813F00C0F3ED0854B9B6803F052
:1007E0000C03082B33D0E368002B68D0814B012227
:1007F0001A60FFF73DFE05467D4B1B6813F0020FA4
:1008000054D1FFF735FE401B0228F5D9032048E1FB
:10081000774A136843F480331360B5E7744B1A6862
:1008200042F480221A601A6842F480321A60ABE700
:10083000FFF71EFE05466E4B1B6813F4003FC3D046
:10084000FFF716FE401B6428F5D9032029E1684B09
:100850005B6813F4800FC6D1654B1B6813F0020F61
:1008600004D0E368012B01D001201AE1604A13682B
:1008700023F0F803216943EAC1031360236813F0EE
:10088000080F40D0636963B35B4B01221A60FFF726
:10089000EFFD0546564B5B6F13F0020F33D1FFF7A8
:1008A000E7FD401B0228F5D90320FAE0504A1368FF
:1008B00023F0F803216943EAC1031360DEE74D4BDF
:1008C00000221A60FFF7D4FD0546494B1B6813F060
:1008D000020FD3D0FFF7CCFD401B0228F5D903202F
:1008E000DFE0454B00221A60FFF7C2FD0546404B92
:1008F0005B6F13F0020F06D0FFF7BAFD401B022812
:10090000F5D90320CDE0236813F0040F1FD1A369AC
:10091000002B00F0C580364A926802F00C02082ACB
:1009200000F0C180022B7FD0344B00221A60FFF709
:100930009FFD04462E4B1B6813F0007F00F0AA8039
:10094000FFF796FD001B0228F4D90320A9E000233D
:100950000193274B1A6C42F080521A641B6C03F00F
:1009600080530193019B264A136843F480731360FC
:10097000FFF77EFD0546224B1B6813F4807F06D1EE
:10098000FFF776FD401B0228F5D9032089E0A36814
:10099000012B1DD0052B21D0154B1A6F22F001021F
:1009A0001A671A6F22F004021A67A36853B3FFF79D
:1009B0005FFD05460E4B1B6F13F0020FA7D1FFF72B
:1009C00057FD401B41F288339842F3D9032068E079
:1009D000074A136F43F001031367E6E7044B1A6FEE
:1009E00042F004021A671A6F42F001021A67DCE74C
:1009F0000038024000004742800E474260004742F4
:100A000000700040FFF734FD0546284B1B6F13F0C4
:100A1000020F3FF47CAFFFF72BFD401B41F2883300
:100A20009842F2D903203CE0214B00221A60FFF7E4
:100A30001FFD05461D4B1B6813F0007F06D0FFF716
:100A400017FD401B0228F5D903202AE0E369226A3A
:100A50001343626A43EA8213A26A5208013A43EAE4
:100A60000243E26A43EA0263104A5360104B0122D8
:100A70001A60FFF7FDFC04460C4B1B6813F0007F67
:100A800006D1FFF7F5FC001B0228F5D9032008E08A
:100A9000002006E0002004E001207047012000E073
:100AA000002003B030BD0120FBE700BF003802404A
:100AB00060004742324B9B6803F00C03042B5CD070
:100AC000082B01D02F4870472DE9F04B2C4B5A686A
:100AD00002F03F025B6813F4800F2BD0284B5B6859
:100AE000C3F388131E4600275C010025E41A65EB5A
:100AF0000705A90141EA9461A001001B61EB050112
:100B0000CB0043EA5073C400A01943EB07014B022A
:100B100043EAD053440220461946002300F0ECFB80
:100B2000174B5B68C3F3014301335B00B0FBF3F089
:100B3000BDE8F08B124B5B68C3F388131E46002799
:100B40005C010025E41A65EB0705A90141EA9461FF
:100B5000A001001B61EB0501CB0043EA5073C40008
:100B6000A01943EB07018B0243EA9053840220460D
:100B70001946002300F0C0FBD2E70348704700BFCE
:100B8000003802400024F40000127A00002800F02F
:100B90009D8070B504464F4B1B6803F00F038B42DA
:100BA00009D2CBB24B4A1370136803F00F038B4288
:100BB00001D0012070BD236813F0020F17D013F08D
:100BC000040F04D0444A936843F4E05393602368CD
:100BD00013F0080F04D0404A936843F460439360D5
:100BE0003D4A936823F0F003A068034393600D46E9
:100BF000236813F0010F32D06368012B21D09A1EB5
:100C0000012A25D9344A126812F0020F60D0324905
:100C10008A6822F0030213438B60FFF729FC064623
:100C20002D4B9B6803F00C036268B3EB820F16D068
:100C3000FFF71EFC801B41F288339842F0D9032055
:100C4000B8E7254A126812F4003FE0D10120B1E76D
:100C5000214A126812F0007FD9D10120AAE71D4B6A
:100C60001B6803F00F03AB4209D9EAB2194B1A70A3
:100C70001B6803F00F03AB4201D001209AE7236801
:100C800013F0040F06D0144A936823F4E053E1688C
:100C90000B439360236813F0080F07D00E4A936844
:100CA00023F46043216943EAC1039360FFF702FF25
:100CB000094B9B68C3F30313084AD35CD840084B25
:100CC00018600020FFF79CFB002073E701207047AD
:100CD00001206FE7003C024000380240543A00080F
:100CE0000C000020014B1868704700BF0C0000206A
:100CF000FEE7000008B503460C4A12685AB10B4AD9
:100D00001068033323F003030344094A934206D8CF
:100D1000064A136008BD054A06491160EFE700F076
:100D20006BFC0C2303604FF0FF30F3E7E801002079
:100D300000FC01208402002001230360014B0B60B2
:100D4000704700BF0400002008B500F055FC582390
:100D500003604FF0FF3008BD08B500F04DFC58238C
:100D600003604FF0FF3008BD08B500F045FC582384
:100D70000360002008BD08B500F03EFC5823036066
:100D80004FF0FF3008BD08B500F036FC5823036073
:100D90004FF0FF3008BD08B500F02EFC582303606B
:100DA0004FF0FF3008BD00000FB400B583B004ABB6
:100DB00053F8042B01938021064801F0CBF9002859
:100DC00003DD0146034800F037F803B05DF804EB9B
:100DD00004B07047F00100202DE9F04385B00446CF
:100DE0000F4643560BB10E461EE004252846214609
:100DF000ABBE0446384605B0BDE8F08314F9011BCC
:100E000004AA1A4402F8101C0133AB42F6D304AA18
:100E10001344002203F8102C4FF00408E946404622
:100E20004946ABBE8046761B002EE3D03546102ED9
:100E300028BF10250023E8E708B5FFF7CDFF08BD60
:100E400008B500F0E9F9024A024B9A6008BD00BFFC
:100E50000000000800ED00E008B500F0FDF908BD55
:100E6000F8B504460D4617461E462748FFF79CFF77
:100E700021682648FFF798FF61682548FFF794FF2F
:100E8000A1682448FFF790FFE1682348FFF78CFF33
:100E900021692248FFF788FF61692148FFF784FF35
:100EA000A1692048FFF780FFE1691F48FFF77CFF39
:100EB0001E48FFF779FF29461D48FFF775FF1D4CB7
:100EC000E16A1D48FFF770FF216B1C48FFF76CFFBC
:100ED000E16B1B48FFF768FF15F0800F0AD115F48E
:100EE000004F0CD11748FFF75FFF06991648FFF730
:100EF0005BFFF8BD39461548FFF756FFEFE731466F
:100F00001348FFF751FFEDE7A8380008B83800088C
:100F1000C8380008D8380008E8380008F838000851
:100F2000083900081839000828390008383900083D
:100F30004439000800ED00E0543900086439000825
:100F400074390008A4390008AC3900088439000855
:100F50009439000883691A888A4201D000207047BA
:100F60000268033A012A03D80233836101207047E3
:100F700000207047FEE708B50138012805D80B4668
:100F800011461846FFF758FF08BD00F035FB5823FF
:100F900003604FF0FF30F7E730B58BB000240194C9
:100FA000284B1A6B42F004021A631A6B02F0040217
:100FB0000192019A02941A6B42F080021A631A6B32
:100FC00002F080020292029A03941A6B42F001022C
:100FD0001A631A6B02F001020392039A04941A6BCB
:100FE00042F002021A631B6B03F002030493049B9A
:100FF000154D224620212846FFF796FB4FF400535B
:101000000593124B0693079405A91148FFF7BAFA06
:101010000C230593022306930794032308930723C5
:10102000099305A92846FFF7ADFA2023059301236C
:1010300006930794089405A92846FFF7A3FA0BB076
:1010400030BD00BF00380240000002400000211007
:1010500000080240FEE7000000B595B000230193B0
:10106000284A116C41F080511164126C02F08052D8
:101070000192019A0293244A116841F4404111609F
:10108000126802F440420292029A0221089101225F
:101090000B9210220C920E910F9310924FF4A873A2
:1010A000119304231293139308A8FFF747FB08BB7F
:1010B0000F23039302210491002305934FF48052E0
:1010C0000692079303A8FFF761FDB8B9FFF70AFE80
:1010D0000E4BA3FB00308009FFF728FA0420FFF72E
:1010E0003BFA002211464FF0FF30FFF7EBF915B045
:1010F0005DF804FB99210648FFF7ACFFA7210448DF
:10110000FFF7A8FF0038024000700040D34D621086
:10111000F039000830B591B06C461D4D0FCD0FC4AD
:1011200095E8030044F8040B2170FFF77FF9FFF7FF
:1011300093FFFFF731FF6846FFF736FE154800F0D2
:1011400041FF06A9144800F055FF06AA13490BA851
:1011500000F068FF0BA800F0C1FE1149114800F033
:101160005BFC04460BA800F0C0FF234602460121A9
:101170000BA800F073FD204600F096FA20210A48E3
:10118000FFF7D8FA4FF4FA70FFF778F9F6E700BFE7
:101190003C3A0008003A0008183A00081C3A0008D7
:1011A000283A00082C3A00080000024008B5072041
:1011B000FFF776F9002211466FF00B00FFF782F976
:1011C000002211466FF00A00FFF77CF90022114659
:1011D0006FF00900FFF776F9002211466FF0040066
:1011E000FFF770F9002211466FF00300FFF76AF96C
:1011F000002211466FF00100FFF764F9002211464A
:101200004FF0FF30FFF75EF908BD08B5FFF728F98A
:10121000FFF7B3F908BD00000C4B1A6842F0010259
:101220001A60002199601A6822F0847222F48032D8
:101230001A60074A5A601A6822F480221A60D9603C
:10124000044B4FF000629A60704700BF00380240C4
:101250001030002400ED00E0224B9B6803F00C03EB
:10126000042B14D0082B16D01BB11F4B1F4A1A6039
:1012700002E01D4B1D4A1A601A4B9B68C3F303130F
:101280001B4AD15C184A1368CB4013607047164B59
:10129000184A1A60F0E7134B5A685B6803F03F0383
:1012A00012F4800F13D0134AB2FBF3F20D4B5B68BC
:1012B000C3F3881303FB02F30A4A5268C2F30142E4
:1012C00001325200B3FBF2F3074A1360D4E7074A36
:1012D000B2FBF3F2034B5B68C3F3881303FB02F327
:1012E000EAE700BF003802400C0000200024F400B0
:1012F000543A000840787D0153B94AB9002908BF23
:1013000000281CBF4FF0FF314FF0FF3000F072B9E2
:10131000ADF1080C6DE904CE00F006F8DDF804E04C
:10132000DDE9022304B070472DE9F047089E04462A
:101330008846002B4BD18A42154667D9B2FA82F211
:101340004AB1C2F1200701FA02F320FA07F79540EB
:1013500047EA030894404FEA154E230CB8FBFEF70A
:101360001FFA85FC0EFB178843EA084307FB0CF1C4
:10137000994209D9EB1807F1FF3080F01B8199429F
:1013800040F21881023F2B445B1AA4B2B3FBFEF07B
:101390000EFB103344EA034400FB0CFCA44509D9BE
:1013A0002C1900F1FF3380F00781A44540F204813D
:1013B00002382C4440EA0740A4EB0C0400271EB17D
:1013C000D4400023C6E900433946BDE8F0878B428C
:1013D00009D9002E00F0EB800027C6E9000138464D
:1013E0003946BDE8F087B3FA83F7002F47D18B4227
:1013F00002D3824200F2FA80841A61EB03030120D7
:101400009846002EE0D0C6E90048DDE702B9FFDECD
:10141000B2FA82F2002A40F08F80491B4FEA154E43
:101420001FFA85F80127B1FBFEFC230C0EFB1C11F3
:1014300043EA014308FB0CF1994207D9EB180CF180
:10144000FF3002D2994200F2CD808446591AA3B2ED
:10145000B1FBFEF00EFB101443EA044408FB00F855
:10146000A04507D92C1900F1FF3302D2A04500F2A4
:10147000B6801846A4EB080440EA0C409FE7C7F189
:10148000200CBB4022FA0CFE4EEA030E01FA07F4D0
:1014900020FA0CF521FA0CF34FEA1E482543B3FB62
:1014A000F8F92C0C08FB19331FFA8EFA44EA0343AF
:1014B00009FB0AF49C4202FA07F200FA07F10BD981
:1014C0001EEB030309F1FF3080F087809C4240F25D
:1014D0008480A9F1020973441B1BADB2B3FBF8F081
:1014E00008FB103345EA034400FB0AFAA24508D979
:1014F0001EEB040400F1FF336BD2A24569D9023818
:10150000744440EA0940A0FB0289A4EB0A044C455C
:10151000C2464B4654D351D0002E69D0B1EB0A05D8
:1015200064EB030404FA0CFCFD40FC404CEA0505A6
:10153000C6E90054002747E7C2F1200320FA03F769
:10154000954001FA02F021FA03F34FEA154E3843B1
:10155000010CB3FBFEF71FFA85F80EFB173341EAC7
:10156000034107FB08F38B4204FA02F407D9691818
:1015700007F1FF3C2FD28B422DD9023F2944CB1AD1
:1015800081B2B3FBFEF00EFB103341EA034100FBD6
:1015900008F38B4207D9691800F1FF3C17D28B4240
:1015A00015D902382944C91A40EA07473BE73746AC
:1015B000304609E70746E7E61846FBE64145ABD269
:1015C000B8EB020A69EB0E0201381346A4E7604645
:1015D000E9E7184695E76746D1E781467CE7023898
:1015E0002C4447E7ACF1020C2B442FE7384608E7C0
:1015F0003746E9E6704700BF014B1868704700BFE7
:101600001000002070B505460C4611B90026304682
:1016100070BD18B183690BB900F050F91F4B9C42A3
:1016200032D16C68B4F90C30002BEFD0214628463B
:1016300000F042F8236B064633B1216A28469847EA
:101640000028B8BF4FF0FF36A3891B0603D52169D8
:10165000284600F089FB616B41B104F144039942D3
:1016600002D0284600F080FB00236363A16C21B107
:10167000284600F079FB0023A36400F08BF90023D7
:10168000A38100F088F9C2E7054B9C4201D1AC6808
:10169000C8E7044B9C4208BFEC68C3E7843A0008E3
:1016A000A43A0008643A0008024B01461868FFF7A4
:1016B000A9BF00BF100000208A892DE9F04105462E
:1016C00010070C4658D44B68002B05DC0B6C002B24
:1016D00002DC0020BDE8F081E66A002EF9D000238C
:1016E00012F480522F68216A2B6032D0606DA3897A
:1016F0005A0705D56368C01A636B0BB1236CC01A17
:1017000000230246E66A216A2846B047431CA389A3
:1017100006D129681D2948D8294ACA40D60744D588
:1017200000226260D9042269226004D5421C01D1E2
:101730002B6803B96065616B2F600029C9D004F183
:101740004403994202D0284600F00EFB002060635B
:10175000C0E701232846B047411CC8D12B68002BA5
:10176000C5D01D2B01D0162B01D12F60B1E7A38965
:1017700043F04003A381ADE70F69002FA9D0930781
:101780000E6808BF4B690F6018BF0023A6EB07085F
:101790008B60B8F1000F9CDD43463A46216AA66A89
:1017A0002846B047002806DCA38943F04003A38104
:1017B0004FF0FF308EE70744A8EB0008E9E700BFD1
:1017C0000100402038B50B6905460C46DBB118B165
:1017D00083690BB900F072F80C4B9C4209D16C681C
:1017E000B4F90C307BB121462846BDE83840FFF7FC
:1017F00063BF074B9C4201D1AC68F1E7054B9C42AB
:1018000008BFEC68ECE7002038BD00BF843A000850
:10181000A43A0008643A0008014620B9044B05497F
:10182000186800F0AFB9044B1868FFF7CBBF00BFD2
:10183000C43A0008C517000810000020002310B5A6
:101840000446C0E90033836081814366C281C0E9F8
:1018500004338361194608225C3000F07CFA054BA2
:101860006362054BA362054BE362054B246223636D
:1018700010BD00BF6520000887200008BF200008B9
:10188000E3200008014900F07DB900BFC51700083A
:1018900070B54A1E682555430E4605F1740100F0E7
:1018A000B1FA044640B10021C0E900160C30A06036
:1018B00005F1680200F04FFA204670BD836910B54B
:1018C000044633BBC0E912330365124B124A1B684E
:1018D0008262984204BF0123836100F01FF86060B8
:1018E000204600F01BF8A060204600F017F8002208
:1018F000E06004216068FFF7A1FF01220921A068D0
:10190000FFF79CFF02221221E068FFF797FF0123F7
:10191000A36110BDC43A000885180008F8B51B4B38
:101920001E68B369074613B93046FFF7C7FF48364C
:10193000D6E90134013B03D5336833B13668F7E7A4
:10194000B4F90C506DB16834F4E704213846FFF760
:101950009FFF30600028F1D10C233B6004462046F5
:10196000F8BD0B4B6566C4E90055A560C4E90335B5
:10197000C4E905550822294604F15C0000F0EBF9A2
:10198000C4E90D55C4E91255E9E700BFC43A00089F
:101990000100FFFF70477047F7B50F46114601AAD7
:1019A000054600F0C7FC064618B90024204603B0DF
:1019B000F0BD2846FFF7B2FF04460028F5D04FF4EB
:1019C000DB73019A3946284600F076FA002806DAD9
:1019D0000025FFF7DFFFA581FFF7DDFFE5E70A4BF5
:1019E00063620A4BA3620A4BE3620A4B2363F3056B
:1019F000E081A6812462D9D502230022214628460F
:101A000000F012F8D2E700BF652000088720000828
:101A1000BF200008E3200008024B0A460146186870
:101A2000FFF7BABF1000002000F000B82DE9F8431E
:101A30000C4691461E46054618B183690BB9FFF75F
:101A40003DFF3F4B9C4212D16C68A38903F4847321
:101A5000B3F5847F03D121462846FFF7B3FED4F8BF
:101A60002C80B8F1000F0CD11D232B6057E0354BB3
:101A70009C4201D1AC68E8E7334B9C4208BFEC685C
:101A8000E3E7012E30D0022E01D0002E55D123697C
:101A90001BB92146284600F013F921462846FFF7D6
:101AA00091FE074600283AD133464A46216A284625
:101AB000C047013033D0616B41B104F14403994216
:101AC00002D0284600F050F90023636323692360A5
:101AD000A389002123F402636160A381082204F139
:101AE0005C0000F038F91CE021462846FFF76AFE4A
:101AF000A28912F480520CD0606DA3895A0713D5C5
:101B00006368C01A636B0BB1236CC01A8144002652
:101B1000BDE7216A33462846C047411CEDD14FF04E
:101B2000FF373846BDE8F8831B07EFD523682269E5
:101B3000002BEBD09B1A1844E8E7162395E700BF6B
:101B4000843A0008A43A0008643A00082DE9F041FC
:101B5000884600F14804002614B93046BDE8F081FB
:101B6000D4E90175013F01D52468F5E7AB89012B64
:101B700006D9B5F90E30013302D02846C0470643D6
:101B80006835EFE72DE9F8438046894600F14804BF
:101B9000002614B93046BDE8F883D4E90175013F49
:101BA00001D52468F5E7AB89012B07D9B5F90E30CB
:101BB000013303D029464046C84706436835EEE75F
:101BC0002DE9F843089C8946174602FB03F80646B0
:101BD00018B183690BB9FFF771FE1D4B9C421AD1F6
:101BE0007468A3891B0720D52369F3B100254545F7
:101BF00029D0A36819F80510013B002BA36004DA73
:101C0000A269934219DB0A2917D023685A1C226063
:101C100019700135EBE70F4B9C4201D1B468E0E746
:101C20000D4B9C4208BFF468DBE72146304600F0CC
:101C300003FB0028DAD0002505E02246304600F0FC
:101C400097FA0130E5D1B5FBF7F0BDE8F88300BFA6
:101C5000843A0008A43A0008643A000807B50093E3
:101C600013460A46014603480068FFF7A9FF03B080
:101C70005DF804FB1000002070B50E46B1F90E109F
:101C8000002996B014461D4607DA00232B60B3895D
:101C90001A0610D44FF480630EE06A4600F080FB11
:101CA0000028F2DB019A02F47042A2F500535A4276
:101CB0005A412A60EEE740230020236016B070BD31
:101CC0008B8973B59D0706460C4607D504F147037B
:101CD000236023610123636102B070BD01AB6A46DA
:101CE000FFF7CAFF00990546304600F08BF848B967
:101CF000B4F90C309A05EFD423F0030343F0020348
:101D0000A381E3E70D4BB362A389206043F0800316
:101D1000A381009B6361019B20615BB1B4F90E104C
:101D2000304600F04FFB28B1A38923F0030343F0B2
:101D30000103A381A3891D43A581CDE78518000870
:101D400010B5431E0A44914200D110BD11F8014B59
:101D500003F8014FF7E702440346934200D170476E
:101D600003F8011BF9E7000038B50546002945D006
:101D700051F8043C0C1F002BB8BFE41800F044FBE2
:101D80001F4A1368104633B9636014602846BDE8E3
:101D9000384000F03ABBA3420CD921686218934244
:101DA00004BF1A685B68636004BF52182260046055
:101DB000ECE713465A680AB1A242FAD919685818D2
:101DC000A0420BD120680144581882421960DDD12D
:101DD000106852685A6001441960D7E702D90C2391
:101DE0002B60D3E7206821188A4204BF116852682B
:101DF000626004BF091821605C60C7E738BD00BF9E
:101E00007002002070B5CD1C25F0030508350C2D9F
:101E100038BF0C25002D064601DBA94203D90C234F
:101E20003360002070BD00F0EFFA214A14682146AB
:101E300091B9204C23681BB9304600F0CBF82060E4
:101E40002946304600F0C6F8431C24D10C233360E9
:101E5000304600F0DAFAE4E70B685B1B18D40B2B72
:101E60000FD90B60CD50CC18304600F0CEFA04F1FB
:101E70000B00231D20F00700C31AD3D05A42E250B2
:101E8000D0E78C424B6816BF636013600C46EBE7EB
:101E90000C464968CCE7C41C24F00304A04205D0DA
:101EA000211A304600F096F80130CFD02560DBE7EC
:101EB000700200207402002038B5074C0546084621
:101EC0001146002222601A46FEF75DFF431C02D134
:101ED000236803B12B6038BD7C0200200FB40A4B8D
:101EE00013B51C6824B1A36913B92046FFF7E6FCBB
:101EF00005AB049AA1680193204600F0FFFB02B0F5
:101F0000BDE8104004B070471000002070B50E46C8
:101F1000054618B183690BB9FFF7D0FCAB69AC6813
:101F200013B92846FFF7CAFC234B9C4217D16C68B3
:101F3000A3891B071DD52369DBB1013EA36816F8F1
:101F4000011F013BA360E9B9002B2EDA22460A21CA
:101F5000284600F00DF9013011D00A2011E0174B8E
:101F60009C4201D1AC68E3E7154B9C4208BFEC688A
:101F7000DEE72146284600F05FF90028DDD04FF06B
:101F8000FF3070BD002B04DAA2699A4206DC0A29F0
:101F900004D023685A1C22601970CFE722462846D5
:101FA00000F0E6F80130C9D1E9E723680A205A1C9D
:101FB00022601870E5E700BF843A0008A43A0008E0
:101FC000643A0008024B01461868FFF79FBF00BF44
:101FD0001000002038B5064C002305460846236053
:101FE000FEF788FE431C02D1236803B12B6038BD85
:101FF0007C0200200FB40A4B13B51C6824B1A369FE
:1020000013B92046FFF75AFC05AB049A61680193A7
:10201000204600F05FFF02B0BDE8104004B07047FA
:10202000100000200EB400B59CB01DAB02900690CD
:102030006FF00041094807910491094953F8042BB6
:1020400005910068019302A900F03AFA029B002270
:102050001A701CB05DF804EB03B07047100000204C
:102060000802FFFF10B50C46B1F90E1001F0B2F8EE
:102070000028ABBF636DA3891B1823F48053ACBF4A
:102080006365A38110BD2DE9F0411F468B89DB05F7
:1020900005460C46164605D502230022B1F90E105E
:1020A00000F0A0F9A389B4F90E1023F48053A381A2
:1020B00032463B462846BDE8F04100F0ABB810B5CB
:1020C0000C46B1F90E1000F08DF9431CA38915BF21
:1020D000606523F4805343F48053A38118BFA38128
:1020E00010BDB1F90E1000F015B9034613F8012B1D
:1020F000002AFBD1181A0138704730B5141E054666
:102100009BB0184605DA8B232B604FF0FF301BB0D5
:1021100030BD4FF40273ADF80C3014BF04F1FF333F
:102120002346029305934FF6FF7300910491ADF897
:102130000E3002461E9B6946284600F0C1F9431C3A
:10214000BCBF8B232B60002CE1D0009B00221A70B7
:10215000DDE7000007B5009313460A460146034831
:102160000068FFF7CAFF03B05DF804FB1000002011
:10217000F8B50E461446054618B183690BB9FFF74A
:102180009DFB214B9C422AD16C68A369A360A38963
:102190001A072ED5236963B323692068C01A6369BF
:1021A000F6B28342374604DC21462846FFF70AFB95
:1021B00028BBA368013BA36023685A1C22601E70E1
:1021C00063690130834204D0A389DB0719D50A2E45
:1021D00017D121462846FFF7F5FA90B10FE00B4BD7
:1021E0009C4201D1AC68D0E7094B9C4208BFEC6827
:1021F000CBE72146284600F01FF80028CCD04FF04E
:10220000FF373846F8BD00BF843A0008A43A0008FA
:10221000643A000838B5074C0546084611460022C6
:1022200022601A46FEF7A7FE431C02D1236803B1C1
:102230002B6038BD7C020020324B70B51D6806460D
:102240000C4625B1AB6913B92846FFF737FB2E4B77
:102250009C420FD16C68B4F90C309AB215072CD49B
:10226000D00611D40922326043F04003A3814FF01D
:10227000FF303EE0254B9C4201D1AC68EBE7244B9C
:102280009C4208BFEC68E6E7510712D5616B41B18B
:1022900004F14403994202D03046FFF765FD002364
:1022A0006363A38923F02403A3810023636023696C
:1022B0002360A38943F00803A38123694BB9A38951
:1022C00003F42073B3F5007F03D021463046FFF7B7
:1022D000F7FCA28912F001030CD00023A36063690C
:1022E0005B42A361236953B9B4F90C3013F0800049
:1022F000BAD170BD920758BF6369A360F2E70020AE
:10230000F7E700BF10000020843A0008A43A000854
:10231000643A000838B5064C002305460846236099
:10232000FEF712FD431C02D1236803B12B6038BDB8
:102330007C0200200B78722B30B52CD0772B07D085
:10234000612B0FD14FF4027401234FF4847003E02A
:102350004FF4C0640123082011F8015F35B923430D
:10236000136002E016230360002030BD622D0CD004
:10237000782D0DD02B2DEFD120F01C0023F003037E
:1023800040F0100043F00203E6E743F48033E3E754
:1023900043F40063E0E7002423460420DCE7000068
:1023A00038B5074C00230546084611462360FEF762
:1023B000D3FC431C02D1236803B12B6038BD00BF9E
:1023C0007C02002038B5064C0023054608462360F1
:1023D000FEF7CAFC431C02D1236803B12B6038BD51
:1023E0007C02002038B5074C0546084611460022FD
:1023F00022601A46FEF7BFFC431C02D1236803B1DA
:102400002B6038BD7C020020704770472DE9F047F3
:102410008E689E4282460C469046994637D88A89F5
:1024200012F4906F31D0256809696F1A656902232B
:1024300005EB450595FBF3F509F101033B449D428E
:1024400038BF1D46530530D52946FFF7DBFC06464D
:1024500050B90C23CAF80030A38943F04003A3818C
:102460004FF0FF30BDE8F0873A462169FFF768FC7E
:10247000A38923F4906343F08003A38126616561FF
:102480003E44ED1B2660A5604E464E4500D94E46A3
:1024900032464146206801F0B3F9A3689B1BA36054
:1024A00023681E4426600020DCE72A4601F0C1F9BB
:1024B00006460028E2D121695046FFF755FCC8E7DF
:1024C0002DE9F04F9DB0804603938B891D060C4685
:1024D00016460FD50B696BB94021FFF793FC2060BE
:1024E000206128B90C23C8F800304FF0FF30C7E056
:1024F000402363610023099320238DF82930302382
:102500008DF82A304FF0010B37463D4615F8013B58
:102510000BB1252B3ED1B7EB060A0BD05346324602
:1025200021464046FFF772FF013000F0A480099B6E
:10253000534409933B78002B00F09D8000234FF01B
:10254000FF32CDE90523049307938DF853301A9396
:102550002F46052217F8011B4F4801F001F9049B93
:10256000D0B9D90644BF20228DF853201A0744BFA2
:102570002B228DF853202A782A2A15D0079A2F4625
:1025800000200A25394611F8013B303B092B4DD973
:10259000B8B10FE02F46B8E73F4A801A0BFA00F0B7
:1025A000184304903D46D3E7039A111D1268039126
:1025B000002A01DB079204E0524243F00203079233
:1025C00004933B782E2B0CD17B782A2B33D1039BA1
:1025D0001A1D1B680392002BB8BF4FF0FF33023760
:1025E00005932E4D39780322284601F0B9F838B109
:1025F0004023401B03FA00F0049B0343013704937C
:10260000397827488DF8281006227E1C01F0A8F89A
:10261000002838D0234B13BB039B073323F0070359
:1026200008330393099B4B4409936DE705FB023282
:1026300001200F46A6E700230137059319460A2516
:10264000384610F8012B303A092A03D9002BC8D09C
:102650000591C6E705FB012101230746F0E703AB1F
:1026600000932246104B04A94046AFF30080B0F11E
:10267000FF3F8146D6D1A3895B063FF536AF099867
:102680001DB0BDE8F08F03AB00932246064B04A9B2
:10269000404600F0BDF9EAE7C83A0008CE3A000823
:1026A000D23A0008000000000D2400089368013BA6
:1026B000002B10B4936007DA9469A34201DB0A2966
:1026C00002D110BCFFF754BD1368581C106019707C
:1026D000084610BC7047F8B506460F461446D51894
:1026E000AC4201D1002007E03A4614F8011B304605
:1026F000FFF7DCFF431CF3D1F8BD00002DE9F04FDC
:102700009DB00C4617460393064618B183690BB972
:10271000FFF7D4F87B4B9C4257D17468A389180704
:102720005DD52369002B5AD00023099320238DF80F
:10273000293030238DF82A304FF0010BB84645463A
:1027400015F8013B0BB1252B54D1B8EB070A0BD080
:1027500053463A4621463046FFF7BDFF013000F0B0
:10276000C280099B5344099398F80030002B00F075
:10277000BA8000234FF0FF32CDE90523049307937D
:102780008DF853301A93A846052218F8011B5E48AD
:1027900000F0E6FF049B78BBD90644BF20228DF8E9
:1027A00053201A0744BF2B228DF853202A782A2A57
:1027B0002AD0079AA84600200A25414611F8013B75
:1027C000303B092B69D960B324E0504B9C4201D1C6
:1027D000B468A3E74E4B9C4208BFF4689EE72146CD
:1027E0003046FFF729FD00289ED04FF0FF301DB086
:1027F000BDE8F08FA846A2E7434A801A0BFA00F022
:10280000184304904546BEE7039A111D12680391D0
:10281000002A01DB079204E0524243F002030792D0
:10282000049398F800302E2B0ED198F801302A2B03
:1028300038D1039B1A1D1B680392002BB8BF4FF0C1
:10284000FF3308F102080593324D98F80010032277
:10285000284600F085FF40B14023401B03FA00F0FA
:10286000049B034308F10108049398F800102A48D8
:102870008DF82810062208F1010700F071FF0028EA
:1028800037D0264B1BBB039B073323F007030833CA
:102890000393099B4B44099350E705FB0232012047
:1028A00088468AE7002308F10108059319460A259E
:1028B000404610F8012B303A092A03D9002BC3D027
:1028C0000591C1E705FB012101238046F0E703AB39
:1028D00000932246124B04A93046AFF30080B0F1BA
:1028E000FF3F8146D5D1A3895B063FF57EAF0998AE
:1028F0007DE703AB00932246094B04A9304600F064
:1029000087F8ECE7843A0008C83A0008A43A0008BF
:10291000643A0008CE3A0008D23A000800000000ED
:10292000D72600082DE9F04791461F468A680B69B3
:10293000DDF820809342B8BF1346C9F8003091F803
:10294000432006460C4612B10133C9F80030236813
:10295000990642BFD9F800300233C9F80030256823
:1029600015F0060507D104F1190AE368D9F800202B
:102970009B1AAB4228DC94F843302268003318BF1E
:10298000012392062DD404F1430239463046C04754
:10299000013020D02368E568D9F8002003F0060351
:1029A000042B08BFAD1AA36822690CBF25EAE575A0
:1029B00000259342C4BF9B1AED184FF000091A344A
:1029C0004D451AD1002008E00123524639463046D1
:1029D000C047013003D14FF0FF30BDE8F08701352B
:1029E000C3E7E1185A1C302081F84300224494F8D0
:1029F000451082F843100233C5E7012322463946C9
:102A00003046C0470130E6D009F10109D8E700009F
:102A10002DE9F04301F1430C0C46097E85B06E2987
:102A20001746064698460C9A00F0B38022D86329D0
:102A300036D00AD8002900F0B980582900F08380E8
:102A400004F1420584F8421032E0642901D069297A
:102A5000F6D120681368050603F104012AD51B6826
:102A60001160002B03DA2D225B4284F843206F486B
:102A70000A2239E0732900F09D8008D86F2920D000
:102A80007029DDD1236843F02003236003E075291A
:102A900017D07829D4D1782384F84530644855E09C
:102AA0001368191D1B68116004F1420584F8423057
:102AB00001238CE01B68116010F0400F18BF1BB29F
:102AC000CFE713682568181D1060280601D51B681C
:102AD00002E06806FBD51B8854486F2914BF0A2200
:102AE0000822002184F843106568A560002DC0F21B
:102AF0009580216821F004012160002B3DD1002D3B
:102B000040F08E806546082A0BD12368DB0708D584
:102B1000236962689A42DEBF302305F8013C05F163
:102B2000FF35ACEB05032361CDF800803B4603AADB
:102B300021463046FFF7F6FE01304DD14FF0FF3011
:102B400005B0BDE8F083394884F845101368216862
:102B50001D1D1B6815600A060BD5CA0744BF41F04E
:102B6000200121601BB9226822F02002226010227D
:102B7000B7E74D0648BF9BB2EFE76546B3FBF2F1FE
:102B800002FB1133C35C05F8013D0B460029F5D16A
:102B9000B9E7136825686169181D106028061B686D
:102BA00001D5196002E06A06FBD519800023236174
:102BB0006546B9E71368191D11601D686268002138
:102BC000284600F0CDFD08B1401B606063682361BA
:102BD000002384F84330A7E723692A463946304664
:102BE000C0470130AAD023689B0713D4E068039B39
:102BF0009842B8BF1846A3E701234A4639463046F3
:102C0000C04701309AD00135E368039A9B1AAB4262
:102C1000F2DCEBE7002504F11909F5E7002BACD154
:102C2000037884F8423004F142056CE7D93A000891
:102C3000EA3A00082DE9F04FADF5257D0DF10C08BD
:102C400001930023469347939E4BA293DFF87C9217
:102C50009D4BCDF8208106460C469246A3930A2749
:102C60009AF80030002B00F02A81554600F056FDFE
:102C700015F801BB5844437813F008031CD063686F
:102C8000002B12DD00F04AFD23681A7810444278C8
:102C9000120701D4AA46E3E7479A013247926268D5
:102CA0000133013A62602360E9E7A39B2146304685
:102CB00098470028E6D0EDE7BBF1250F40F0828071
:102CC000459343939AF801302A2B03D11023439361
:102CD0000AF10205AA4615F8011BA1F13002092AE2
:102CE00022D90322794800F03BFD38B1A0EB09035B
:102CF00001209840439B18434390AA469AF800301D
:102D0000672B0AF101052BD8652B80F09F80472B9C
:102D100010D8452B80F09A80002B6CD0252B51D0F9
:102D200003234993449727E0459B07FB0313303B5C
:102D30004593CFE75B2B6AD00CD8582BF0D1439A40
:102D400042F400724392102244926E2B8CBF0423F3
:102D5000032310E0632B65D0642BE1D14497F4E7A3
:102D6000702B4BD026D86E2B62D04CD8692BD7D184
:102D700000234493032349936368002B68DD439B3E
:102D8000590607D400F0CAFC23681A781044427828
:102D9000120764D4499B022B73DC01AB224643A982
:102DA000304600F0BFF8012800F0898002287FF447
:102DB00071AF1DE0752BD1D0782BC0D0732BAFD164
:102DC0000223D8E76368002B0CDD23681A785A4584
:102DD00075D1013362682360479B013A0133626019
:102DE000479357E7A39B2146304698470028ECD0ED
:102DF0004698002859D14FF0FF305CE0439A42F0EA
:102E0000200243929BE7082344930423B3E7294617
:102E1000404600F087FA439B43F040034393054646
:102E20000123A8E7439B43F0400343930023A2E719
:102E30004398C3063FF52EAF019B479A191D019198
:102E40001B68C0074CBF1A801A6023E7052392E76E
:102E5000A39B214630469847002890D0C8E7479A60
:102E6000013247926268013A002A626002DD013352
:102E7000236087E7A39B214630469847002881D0EE
:102E8000B6E7042B06DC01AB224643A9304600F02E
:102E9000ADF888E70E4B002B3FF4FCAE01AB2246A9
:102EA00043A93046AFF300807DE7A38913F0400FBC
:102EB00018BF4FF0FF300DF5257DBDE8F08F469827
:102EC000F9E700BF313600080D320008CE3A00089D
:102ED000000000002DE9F0410C4616461F4605464D
:102EE00018B183690BB9FEF7E9FC0B4B9C4208D182
:102EF0006C683B46324621462846BDE8F041FFF764
:102F000099BE064B9C4201D1AC68F2E7044B9C424F
:102F100008BFEC68EDE700BF843A0008A43A000857
:102F2000643A00082DE9F04115468A6880460C464F
:102F300032B98A69002A14BF4FF0FF3201228A6039
:102F40002268D1065FBF1A68111D19601768002634
:102F5000A369DBB1012B07D12B6862691B78D35CB5
:102F6000A3B9002E32D106E0022B07D0002E2DD1BE
:102F7000A369012B2AD10120BDE8F08100F0CEFB2E
:102F80002B681B78184443781B07EFD42368DA06B4
:102F90005EBF2B681B783B702A686B6802F10102E8
:102FA0002A60A26803F1FF3302F1FF326B6006F181
:102FB000010658BF0137A26042B1002BC8DCD4F82B
:102FC00080312946404698470028C1D0236813F035
:102FD000100305D1E2680132E260A26902B13B70E0
:102FE00023691E4426610020C6E700002DE9F04F4A
:102FF0009A46744B0C468346164693E8070087B002
:1030000003ABA76883E807006F4BA1696F4A0329E8
:1030100008BF1A467B1EB3F5AE7F84BF40F25D1336
:10302000A3602368009243F4506388BF6FF4AE75C9
:1030300004F11C0923608CBF7F1900274B464FF019
:1030400000080193316803AB022253F82800097885
:1030500000F086FB019B30B3B8F1010F5AD16268D2
:103060002AB92268082142F4007261602260226855
:1030700022F4A0622260A268511EA1609AB1326857
:10308000511C316012781A705D1C7368013B002B73
:10309000736007DCD4F880313146584698470028E1
:1030A00040F086802B4608F10108B8F1030FC8D123
:1030B00062680AB90A2262606268454960690193E0
:1030C000891A00F02FF9019B4FF000081D46A368F4
:1030D0002268002B3AD03168606991F800C010F87E
:1030E0000C00002832D0BCF1300F21D110051FD5C3
:1030F00008F1010817B10133013FA3607368013B78
:10310000002B73601BDD336801333360A368013B20
:10311000A360DCE7B8F1020FADD1226802F4C06110
:10312000B1F5007FBFD11021616042F48072A1E748
:1031300022F4106222600B782B700135DEE7D4F8A0
:1031400080313146584698470028DFD02368D9059A
:103150000CD54D4508D915F8011CD4F87C31324600
:10316000584698476F1E3D464D4529D0226812F0BB
:10317000100213D12A706368009E49465846B04732
:10318000DAF8003021681A1DCAF8002011F0200F6B
:103190001B6810D01860E3680133E360A5EB0905F4
:1031A000A844256945442561002007B0BDE8F08F9B
:1031B0004FF00008CAE7CA074CBF18801860EAE75A
:1031C0000120F2E7FC3A0008813400089935000834
:1031D000183B000838B5074C054608461146002242
:1031E00022601A46FDF7D7FD431C02D1236803B1C4
:1031F0002B6038BD7C020020838903F00903092B72
:1032000001D1FEF709BB002070470000F8B50C465D
:10321000054618B183690BB9FEF750FB3C4B9C4245
:103220000AD16C68B4F90C200023636093B29E0647
:103230000CD54FF0FF3067E0364B9C4201D1AC68B3
:10324000F0E7354B9C4208BFEC68EBE7580749D4E0
:10325000D90605D4092342F040022B60A281E8E799
:103260001A070BD521462846FEF7ACFA0028E0D114
:10327000A389A06023F00803A381A061A38943F080
:103280000403A38123691BB921462846FEF718FDD4
:10329000B4F90C70BEB2B3070FD00123A3811F4B4A
:1032A0001F49186806F00906FEF750FC092EA78191
:1032B00003D121462846FEF7FFF922692260666A9B
:1032C0006369216A2846B047002860601DDCB4F9B4
:1032D0000C3017BF002243F0200343F0400362602C
:1032E000A381A6E7616B0029CCD004F14403994285
:1032F00002D02846FEF738FD236C6360002060632F
:10330000002BBFD0E36B2360F8BD0020FCE700BFBB
:10331000843A0008A43A0008643A0008C43A000855
:10332000F931000870B50B785E2B13BF4A1C8A1C5C
:103330004B78002108BF0121441E00F1FF0504F86D
:10334000011FAC42FBD113B9013A104670BD81F0A8
:103350000104C454511C11F8015C2D2D01F1FF36FC
:103360000A4606D05D2DF0D00DB93246EDE72B466A
:10337000EFE70E785D2EFAD0B342F8DC01339E42BF
:10338000C454FBDC0231E6E72DE9F047804689466C
:1033900092461E460F463D46089815F8014B00F030
:1033A000B9F92044437813F0080332D12D2C32D1DF
:1033B0007C78BD1C0122002E5DD0102E09D1302C4E
:1033C00007D12B7803F0DF03582B4FD16C781026F0
:1033D0000235002A14BF4FF000416FF00041002772
:1033E000B1FBF6FC384606FB1C1EA4F13003092B8A
:1033F00017D81C46A64223DD7B1C07D084451CD36E
:1034000001D1A64519DB00FB0640012715F8014B49
:10341000EBE72F46BFE72B2C04BFBD1C7C781A4678
:10342000C9E7A4F14103192B01D8373CE2E7A4F125
:103430006103192B04D8573CDCE74FF0FF37E5E771
:103440007B1C08D12223C8F800300846BAF1000FCF
:1034500007D1BDE8F08702B14042BAF1000FF8D0C1
:103460000FB105F1FF39CAF80090F2E73024002EC1
:10347000AFD10826ADE7302CA3D00A26A9E700007B
:1034800037B5064C064D2468246A002C08BF2C462C
:103490000094FFF779FF03B030BD00BF100000209B
:1034A000740000202DE9F0478046894692461E466A
:1034B0000F463D46089815F8014B00F02BF92044C3
:1034C000437813F0080330D12D2C30D17C78BD1C0B
:1034D0000121002E5CD0102E09D1302C07D12B7881
:1034E00003F0DF03582B4ED16C78102602354FF0D5
:1034F000FF320023B2FBF6F206FB02FC6FEA0C0C73
:103500001846A4F13007092F17D83C46A64223DD00
:10351000002B1EDB82421CD301D1A44519DB00FB2A
:103520000640012315F8014BEBE72F46C1E72B2C92
:1035300004BFBD1C7C781946CBE7A4F14107192FC5
:1035400001D8373CE2E7A4F16107192F04D8573CB2
:10355000DCE74FF0FF33E5E7002B09DA2223C8F858
:1035600000304FF0FF30BAF1000F07D1BDE8F0870F
:1035700001B14042BAF1000FF8D00BB105F1FF39AB
:10358000CAF80090F2E73024002EB0D10826AEE74A
:10359000302CA4D00A26AAE737B5064C064D24687D
:1035A000246A002C08BF2C460094FFF77BFF03B071
:1035B00030BD00BF10000020740000202DE9F04154
:1035C0000C46496B04F1440399421DD14FF48061CC
:1035D000FEF718FC18B94FF0FF30BDE8F0814FF44A
:1035E0008063A36394F84630606380F8FF3394F8F7
:1035F000453080F8FE3394F8443080F8FD3300F213
:10360000FD3020600020E8E7A66B77003A4600F026
:1036100010F905460028DED000EB060801463246C8
:103620004046FEF78DFBC4F80080C4E90D57E9E77A
:103630004B1C70B506460D46144603D14FF0FF35BE
:10364000284670BD18B183690BB9FEF737F92E4BC8
:103650009C422CD17468B4F90C3023F02003A38170
:103660009BB2590713D4DA06E8D51B070BD52146C0
:103670003046FEF7A7F80028E0D1A389A06023F028
:103680000803A381A061A38943F00403A381636BB2
:103690006268EDB2E3B1A36B934212DD23685A1E58
:1036A000226003F8015C636801336360C8E7174B6D
:1036B0009C4201D1B468CEE7154B9C4208BFF46828
:1036C000C9E721463046FFF779FF0028E6D0B5E785
:1036D0002169236851B1994208D213F8011CA9420B
:1036E00004D1013B013223606260A9E7C4E90F32D3
:1036F00004F1440363630323A363234603F8465F93
:1037000023600123D1E700BF843A0008A43A0008EF
:10371000643A0008D0F8EC0070470000044B054AFA
:103720001B681B6A002B08BF1346D3F8EC007047D8
:10373000100000207400002082B001B901A942B13C
:103740004BB113780B601278101C18BF012002B027
:1037500070471046FBE76FF00100F8E7000000003B
:1037600001F0FF01102A2BDB10F0070F08D010F832
:10377000013B013A8B422DD010F0070F42B3F6D136
:10378000F0B441EA012141EA014122F007047FF04F
:1037900000070023F0E80256083C85EA010586EAA6
:1037A000010685FA47F5A3FA87F586FA47F6A5FAE2
:1037B00087F68EB9EED1F0BC01F0FF0102F00702EE
:1037C00032B110F8013B013A83EA010313B1F8D199
:1037D0000020704701387047002D06BF354603387A
:1037E000073815F0010F07D1013015F4807F02BFB3
:1037F000013015F4C03F0130F0BC0138704700BF04
:10380000884210B501EB020307D8421E99420AD044
:1038100011F8014B02F8014FF8E78342F5D98118FE
:10382000D21AD34200D110BD13F8014D01F8014D59
:10383000F7E7F8B5074614460E4621B91146BDE82C
:10384000F840FEF7DFBA22B9FEF78EFA2546284681
:10385000F8BD00F021F8A0420FD221463846FEF70D
:10386000D1FA05460028F2D031462246FEF768FA22
:1038700031463846FEF778FAE9E73546E7E749B1D9
:10388000FF2A85BF8A2303600A704FF0FF3098BF7C
:10389000012070470846704751F8043C181F002B60
:1038A000BCBF0B58C0187047537461636B206672BD
:1038B000616D653A0A000000205230203D2020252D
:1038C0003038580A00000000205231203D202025C9
:1038D0003038580A00000000205232203D202025B8
:1038E0003038580A00000000205233203D202025A7
:1038F0003038580A0000000020523132203D202587
:103900003038580A00000000204C52203D2020256D
:103910003038580A00000000205043203D20202568
:103920003038580A0000000020505352203D202516
:103930003038580A000000004653522F4641523A90
:103940000A0000002043465352203D2020253038F5
:10395000580A00002048465352203D202025303888
:10396000580A00002044465352203D20202530387C
:10397000580A00002041465352203D20202530386F
:10398000580A0000204D4D464152203D2025303838
:10399000580A00002042464152203D202025303860
:1039A000580A00004D6973630A000000204C522F32
:1039B0004558435F52455455524E3D2025303858A6
:1039C0000A0000005B486172644661756C745D0AB0
:1039D000000000005B4275734661756C745D0A00FF
:1039E0005B55736167654661756C745D0A00000024
:1039F0002E2E2F7372632F6D61696E2E630000008F
:103A000057686174277320796F7572206E616D65D8
:103A10003F3A200D000000002573000048656C6CE3
:103A20006F202573210D0A00772B00002F746D7015
:103A30002F746573742E6F757400000048656C6C8C
:103A40006F2053544D3332206C6F76657273210AA8
:103A5000000000000000000000000000010203045C
:103A60000607080900000000000000000000000038
:103A70000000000000000000000000000000000046
:103A80000000000000000000000000000000000036
:103A90000000000000000000000000000000000026
:103AA0000000000000000000000000000000000016
:103AB0000000000000000000000000000000000006
:103AC0000000000014000020232D302B2000686C23
:103AD0004C00656667454647003031323334353631
:103AE000373839414243444546003031323334356A
:103AF0003637383961626364656600001A3B000836
:103B00001D3B0008203B0008412D46612D663839D9
:103B100030313233343536375D002B2D00303000F4
:103B20007858004300504F534958002E0000202081
:103B3000202020202020202828282828202020205D
:103B4000202020202020202020202020202088101D
:103B5000101010101010101010101010101004047D
:103B60000404040404040404101010101010104184
:103B700041414141410101010101010101010101F5
:103B8000010101010101010101101010101010428A
:103B900042424242420202020202020202020202C5
:103BA00002020202020202020210101010200000A3
:103BB0000000000000000000000000000000000005
:103BC00000000000000000000000000000000000F5
:103BD00000000000000000000000000000000000E5
:103BE00000000000000000000000000000000000D5
:103BF00000000000000000000000000000000000C5
:103C000000000000000000000000000000000000B4
:103C100000000000000000000000000000000000A4
:0E3C2000000000000000000000000000000096
:083C3000F8D6FF7F010000003F
:103C380078563412EC010020000000000024F40043
:103C48001400002000000000843A0008A43A00088C
:103C5800643A0008000000000000000000000000B6
:103C6800000000000000000000000000000000004C
:103C7800000000000000000000000000000000003C
:103C8800000000000000000000000000000000002C
:103C9800000000000000000000000000000000001C
:103CA80000000000430000000000000000000000C9
:103CB80000000000000000000000000000000000FC
:103CC80000000000430000000000000000000000A9
:103CD80000000000000000000000000000000000DC
:103CE8000000000043000000000000000000000089
:103CF80000000000000000000000000000000000BC
:103D08000000000043000000000000000000000068
:103D1800000000000000000000000000000000009B
:103D28000000000043000000000000000000000048
:103D3800000000000000000000000000000000007B
:103D48000000000043000000000000000000000028
:103D5800000000000000000000000000000000005B
:103D68000000000043000000000000000000000008
:103D7800000000000000000000000000000000003B
:103D8800000000007F3800083937000800000000F4
:103D98002D3B00082B3B0008CD3A0008CD3A00081F
:103DA800CD3A0008CD3A0008CD3A0008CD3A0008CF
:103DB800CD3A0008CD3A0008CD3A0008FFFFFFFFD2
:103DC800FFFFFFFFFFFFFFFFFFFF00000100415360
:103DD8004349490000000000000000000000000006
:103DE8000000000000000000000000000000415337
:103DF80043494900000000000000000000000000E6
:103E080000000000000000000000000000000000AA
:043E18003254769812
:040000050800019955
:00000001FF
