:020000040800F2
:1000000000000220AD020008B3020008B702000899
:1000100001030008050300084D030008000000006C
:100020000000000000000000000000009503000830
:1000300099030008000000009D0300083710000825
:10004000490E0008490E0008490E0008490E000834
:10005000490E0008490E0008490E0008490E000824
:10006000490E0008490E0008490E0008490E000814
:10007000490E0008490E0008490E0008490E000804
:10008000490E0008490E0008490E00080000000053
:10009000000000000000000000000000490E000801
:1000A000490E0008490E0008490E0008490E0008D4
:1000B000490E0008490E0008490E0008490E0008C4
:1000C000490E0008490E0008490E0008490E0008B4
:1000D000490E0008490E0008490E00080000000003
:1000E000490E0008490E0008490E000800000000F3
:1000F000000000000000000000000000490E0008A1
:1001000000000000490E0008490E0008490E0008D2
:1001100000000000000000000000000000000000DF
:10012000490E0008490E0008490E0008490E000853
:10013000490E000800000000000000000000000060
:10014000000000000000000000000000490E000850
:10015000490E0008490E0008490E0008490E000823
:10016000490E0008490E00080000000000000000D1
:10017000000000000000000000000000000000007F
:1001800000000000490E0008000000000000000010
:10019000490E0008490E000800B583B000F0CAFD02
:1001A000304B314A1360314A1360314B314A324986
:1001B0008B4204D21168196004330432F7E72A4BEA
:1001C0001A682E4B9A4200D0FEE7284B1A682C4B37
:1001D0009A42F9D1234B2B4A13602B4A13602B4BC5
:1001E00002E000221A600433294A9342F9D3254BD6
:1001F0001B6813B9244B1B6803B1FEE700F0A6FD92
:10020000694601A800F072FD224C234BE41AA410A9
:100210000025AC4214DC214C214BE41AA41000252B
:10022000AC4213DC0099019800F0CEFE05461D4C4F
:100230001D4BE41AA410002C0EDC284600F032FD01
:10024000154B53F8253098470135E2E7144B53F826
:10025000253098470135E3E7013C134B53F8243030
:100260009847E8E7BABADECA000000207400002010
:1002700000000020B81E00087800002078563412D4
:100280003254769878000020140100207800002075
:1002900018010020D8030008D8030008D80300087C
:1002A000D8030008D8030008D803000808B5FFF7F2
:1002B00073FF00BEFEE71EF0040F0CBFEFF30880D3
:1002C000EFF309807146374A10472DE9F04182B0BB
:1002D00004468846084B5E6B9F6B9D6A074800F09A
:1002E0000DFDCDF800803B4632462946204600F001
:1002F00031FD00BEFEE700BF00ED00E0301E00084B
:1003000000BEFEE71EF0040F0CBFEFF30880EFF312
:1003100009807146244A10472DE9F04182B0044615
:100320008846084B5E6B9F6B9D6A074800F0E6FCB1
:10033000CDF800803B4632462946204600F00AFDB3
:1003400000BEFEE700ED00E0401E00081EF0040FB6
:100350000CBFEFF30880EFF309807146134A104792
:100360002DE9F04182B004468846084B5E6B9F6BD6
:100370009D6A074800F0C2FCCDF800803B4632463B
:100380002946204600F0E6FC00BEFEE700ED00E056
:100390004C1E000800BEFEE700BEFEE700BEFEE702
:1003A00070470000CB020008190300086103000831
:1003B000B81E00080000002078000020B81E0008C9
:1003C000000000100000001078000020180100203C
:0803D000000000100000001005
:1003E00010B50446074B1868074BA3FB0030800983
:1003F00000F07AF8002221464FF0FF3000F040F87C
:10040000002010BD0C000020D34D621008B50B4B2E
:100410001A6842F400721A601A6842F480621A6024
:100420001A6842F480721A60032000F017F8002066
:10043000FFF7D6FF00F0D0FD002008BD003C0240D1
:10044000024A136801331360704700BF0C0100209B
:10045000014B1868704700BF0C010020074AD368A1
:1004600023F4E0631B041B0C000200F4E06018435B
:1004700040F0BF6040F40030D060704700ED00E015
:1004800030B4174BDB68C3F30223C3F10704042C19
:1004900028BF04241D1D062D18D9033B4FF0FF353E
:1004A00005FA04F421EA0401994005FA03F322EA6B
:1004B0000303194300280BDB0901C9B200F16040B6
:1004C00000F5614080F8001330BC70470023E5E779
:1004D00000F00F000901C9B2024B1954F4E700BF44
:1004E00000ED00E014ED00E00138B0F1807F0AD2A9
:1004F000064B5860064AF02182F8231000209860CD
:1005000007221A6070470120704700BF10E000E02A
:1005100000ED00E0042805D0054A136823F0040329
:1005200013607047024A136843F004031360704776
:1005300010E000E0704708B5FFF7FCFF08BD0000C1
:1005400000230F2B00F2C580F0B482B039E0042202
:1005500000E00022B2403A4302345E4E46F82420C6
:100560005D4A1468EA4302EA04064F6817F4803FC4
:1005700001D045EA0406584C2660646802EA040685
:100580004F6817F4003F01D045EA0406524C6660FC
:10059000A46802EA04064F6817F4801F01D045EAF8
:1005A00004064D4CA660E46822404E6816F4001F15
:1005B00001D045EA0402484CE26001330F2B00F2FF
:1005C000858001229A400C6804EA0205AA42F4D10F
:1005D0004C68022C01D0122C10D1DE08083650F8DD
:1005E00026C003F00704A7000F24BC402CEA040C2B
:1005F0000C69BC4044EA0C0440F8264004685F00E3
:100600000326BE40F64306EA040C4C6804F00304DB
:10061000BC4044EA0C0404604C6804F1FF3CBCF1AB
:10062000010F03D9112C01D0122C10D1846806EAD5
:10063000040CCC68BC4044EA0C048460446824EA9E
:1006400002024C68C4F300149C4014434460C26826
:1006500016408A68BA403243C2604A6812F0805F2E
:10066000ABD0002201921D4A546C44F4804454647F
:10067000526C02F480420192019A9C08A61C154A11
:1006800052F8267003F0030296000F22B24027EAC8
:100690000207134A90423FF45CAF02F58062904239
:1006A0000ED002F5806290420CD002F5806290423A
:1006B0000AD002F5806290423FF449AF072249E731
:1006C000012247E7022245E7032243E702B0F0BCDC
:1006D0007047704700380140003C0140003802403C
:1006E0000000024012B909048161704781617047BE
:1006F000002800F0AB8130B583B00446036813F0E6
:10070000010F3BD0A74B9B6803F00C03042B2CD0AC
:10071000A44B9B6803F00C03082B21D06368B3F54E
:10072000803F4FD0B3F5A02F52D09E4B1A6822F4D1
:1007300080321A601A6822F480221A606368002BE3
:1007400050D0FFF785FE0546964B1B6813F4003F1B
:1007500014D1FFF77DFE401B6428F5D903207AE110
:10076000904B5B6813F4800FD8D08E4B1B6813F44A
:10077000003F03D06368002B00F06A81236813F008
:10078000020F55D0874B9B6813F00C0F3ED0854B62
:100790009B6803F00C03082B33D0E368002B68D070
:1007A000814B01221A60FFF753FE05467D4B1B6803
:1007B00013F0020F54D1FFF74BFE401B0228F5D96E
:1007C000032048E1774A136843F480331360B5E7A8
:1007D000744B1A6842F480221A601A6842F480321C
:1007E0001A60ABE7FFF734FE05466E4B1B6813F447
:1007F000003FC3D0FFF72CFE401B6428F5D903202F
:1008000029E1684B5B6813F4800FC6D1654B1B6808
:1008100013F0020F04D0E368012B01D001201AE18C
:10082000604A136823F0F803216943EAC1031360A7
:10083000236813F0080F40D0636963B35B4B012258
:100840001A60FFF705FE0546564B5B6F13F0020F6B
:1008500033D1FFF7FDFD401B0228F5D90320FAE054
:10086000504A136823F0F803216943EAC103136077
:10087000DEE74D4B00221A60FFF7EAFD0546494BC3
:100880001B6813F0020FD3D0FFF7E2FD401B0228D4
:10089000F5D90320DFE0454B00221A60FFF7D8FDB1
:1008A0000546404B5B6F13F0020F06D0FFF7D0FDFB
:1008B000401B0228F5D90320CDE0236813F0040F74
:1008C0001FD1A369002B00F0C580364A926802F060
:1008D0000C02082A00F0C180022B7FD0344B00228A
:1008E0001A60FFF7B5FD04462E4B1B6813F0007F1E
:1008F00000F0AA80FFF7ACFD001B0228F4D903200A
:10090000A9E000230193274B1A6C42F080521A642D
:100910001B6C03F080530193019B264A136843F438
:1009200080731360FFF794FD0546224B1B6813F498
:10093000807F06D1FFF78CFD401B0228F5D90320EC
:1009400089E0A368012B1DD0052B21D0154B1A6F10
:1009500022F001021A671A6F22F004021A67A368D4
:1009600053B3FFF775FD05460E4B1B6F13F0020FD7
:10097000A7D1FFF76DFD401B41F288339842F3D9B0
:10098000032068E0074A136F43F001031367E6E7AB
:10099000044B1A6F42F004021A671A6F42F0010208
:1009A0001A67DCE70038024000004742800E4742E9
:1009B0006000474200700040FFF74AFD0546284BA3
:1009C0001B6F13F0020F3FF47CAFFFF741FD401B9C
:1009D00041F288339842F2D903203CE0214B0022B7
:1009E0001A60FFF735FD05461D4B1B6813F0007FAD
:1009F00006D0FFF72DFD401B0228F5D903202AE081
:100A0000E369226A1343626A43EA8213A26A5208C4
:100A1000013A43EA0243E26A43EA0263104A53603E
:100A2000104B01221A60FFF713FD04460C4B1B68A4
:100A300013F0007F06D1FFF70BFD001B0228F5D94C
:100A4000032008E0002006E0002004E001207047B9
:100A5000012000E0002003B030BD0120FBE700BF13
:100A60000038024060004742324B9B6803F00C03A1
:100A7000042B5CD0082B01D02F4870472DE9F04B98
:100A80002C4B5A6802F03F025B6813F4800F2BD0A6
:100A9000284B5B68C3F388131E4600275C010025C2
:100AA000E41A65EB0705A90141EA9461A001001B66
:100AB00061EB0501CB0043EA5073C400A01943EB7E
:100AC00007014B0243EAD053440220461946002353
:100AD00000F028FB174B5B68C3F3014301335B0055
:100AE000B0FBF3F0BDE8F08B124B5B68C3F38813E7
:100AF0001E4600275C010025E41A65EB0705A901E5
:100B000041EA9461A001001B61EB0501CB0043EABF
:100B10005073C400A01943EB07018B0243EA9053C2
:100B2000840220461946002300F0FCFAD2E703486D
:100B3000704700BF003802400024F40000127A0021
:100B4000002800F09D8070B504464F4B1B6803F0F1
:100B50000F038B4209D2CBB24B4A1370136803F0D8
:100B60000F038B4201D0012070BD236813F0020FE8
:100B700017D013F0040F04D0444A936843F4E053B1
:100B80009360236813F0080F04D0404A936843F43D
:100B9000604393603D4A936823F0F003A0680343E9
:100BA00093600D46236813F0010F32D06368012B68
:100BB00021D09A1E012A25D9344A126812F0020F58
:100BC00060D032498A6822F0030213438B60FFF73A
:100BD0003FFC06462D4B9B6803F00C036268B3EBA9
:100BE000820F16D0FFF734FC801B41F28833984205
:100BF000F0D90320B8E7254A126812F4003FE0D18B
:100C00000120B1E7214A126812F0007FD9D10120FA
:100C1000AAE71D4B1B6803F00F03AB4209D9EAB2E8
:100C2000194B1A701B6803F00F03AB4201D001206F
:100C30009AE7236813F0040F06D0144A936823F44C
:100C4000E053E1680B439360236813F0080F07D06B
:100C50000E4A936823F46043216943EAC103936019
:100C6000FFF702FF094B9B68C3F30313084AD35CE9
:100C7000D840084B18600020FFF7B2FB002073E754
:100C80000120704701206FE7003C0240003802401D
:100C90006C1E00080C000020014B1868704700BF54
:100CA0000C000020FEE7000008B503460C4A12685D
:100CB0005AB10B4A1068033323F003030344094A73
:100CC000934206D8064A136008BD054A06491160DA
:100CD000EFE700F0A7FB0C2303604FF0FF30F3E7D2
:100CE0007C00002000FC012018010020012303608B
:100CF000014B0B60704700BF040000200FB400B52B
:100D000083B004AB53F8042B01938021064800F014
:100D1000C7FB002803DD0146034800F007F803B0D5
:100D20005DF804EB04B07047840000204FF0FF3002
:100D30007047000008B500F085F9024A024B9A603E
:100D400008BD00BF0000000800ED00E008B500F09D
:100D500099F908BDF8B504460D4617461E462748C2
:100D6000FFF7CCFF21682648FFF7C8FF61682548D8
:100D7000FFF7C4FFA1682448FFF7C0FFE1682348DC
:100D8000FFF7BCFF21692248FFF7B8FF61692148DE
:100D9000FFF7B4FFA1692048FFF7B0FFE1691F48E2
:100DA000FFF7ACFF1E48FFF7A9FF29461D48FFF7D4
:100DB000A5FF1D4CE16A1D48FFF7A0FF216B1C48F1
:100DC000FFF79CFFE16B1B48FFF798FF15F0800FC2
:100DD0000AD115F4004F0CD11748FFF78FFF069981
:100DE0001648FFF78BFFF8BD39461548FFF786FF19
:100DF000EFE731461348FFF781FFEDE7141D0008C8
:100E0000241D0008341D0008441D0008541D00085E
:100E1000641D0008741D0008841D0008941D00084E
:100E2000A41D0008B01D000800ED00E0C01D000872
:100E3000D01D0008E01D0008101E0008181E000844
:100E4000F01D0008001E0008FEE7000030B58BB062
:100E500000240194284B1A6B42F004021A631A6BA7
:100E600002F004020192019A02941A6B42F080028D
:100E70001A631A6B02F080020292029A03941A6BB0
:100E800042F001021A631A6B02F001020392039A04
:100E900004941A6B42F002021A631B6B03F0020304
:100EA0000493049B154D224620212846FFF71AFC87
:100EB0004FF400530593124B0693079405A911486C
:100EC000FFF73EFB0C2305930223069307940323AD
:100ED00008930723099305A92846FFF731FB202330
:100EE0000593012306930794089405A92846FFF764
:100EF00027FB0BB030BD00BF0038024000000240AD
:100F00000000211000080240FEE7000000B595B087
:100F100000230193284A116C41F080511164126C36
:100F200002F080520192019A0293244A116841F41E
:100F300040411160126802F440420292029A02217A
:100F4000089101220B9210220C920E910F93109295
:100F50004FF4A873119304231293139308A8FFF777
:100F6000C7FB08BB0F2303930221049100230593C1
:100F70004FF480520692079303A8FFF7E1FDB8B93A
:100F8000FFF78AFE0E4BA3FB00308009FFF7ACFA97
:100F90000420FFF7BFFA002211464FF0FF30FFF7A1
:100FA0006FFA15B05DF804FB89210648FFF7ACFF26
:100FB00097210448FFF7A8FF003802400070004066
:100FC000D34D62105C1E000808B5FFF71FFAFFF74B
:100FD0009DFFFFF73BFFFEE708B50720FFF73EFA4E
:100FE000002211466FF00B00FFF74AFA002211466B
:100FF0006FF00A00FFF744FA002211466FF0090073
:10100000FFF73EFA002211466FF00400FFF738FAAE
:10101000002211466FF00300FFF732FA002211465A
:101020006FF00100FFF72CFA002211464FF0FF305D
:10103000FFF726FA08BD08B5FFF702FAFFF77BFABB
:1010400008BD00000C4B1A6842F001021A60002132
:1010500099601A6822F0847222F480321A60074A7A
:101060005A601A6822F480221A60D960044B4FF04B
:1010700000629A60704700BF0038024010300024C0
:1010800000ED00E0224B9B6803F00C03042B14D00E
:10109000082B16D01BB11F4B1F4A1A6002E01D4BD4
:1010A0001D4A1A601A4B9B68C3F303131B4AD15C99
:1010B000184A1368CB4013607047164B184A1A60E1
:1010C000F0E7134B5A685B6803F03F0312F4800F9C
:1010D00013D0134AB2FBF3F20D4B5B68C3F38813D2
:1010E00003FB02F30A4A5268C2F301420132520082
:1010F000B3FBF2F3074A1360D4E7074AB2FBF3F2FB
:10110000034B5B68C3F3881303FB02F3EAE700BFFA
:10111000003802400C0000200024F4006C1E00087F
:1011200040787D0153B94AB9002908BF00281CBF87
:101130004FF0FF314FF0FF3000F072B9ADF1080C05
:101140006DE904CE00F006F8DDF804E0DDE90223E5
:1011500004B070472DE9F047089E04468846002BEE
:101160004BD18A42154667D9B2FA82F24AB1C2F12E
:10117000200701FA02F320FA07F7954047EA03082F
:1011800094404FEA154E230CB8FBFEF71FFA85FC7E
:101190000EFB178843EA084307FB0CF1994209D973
:1011A000EB1807F1FF3080F01B81994240F2188163
:1011B000023F2B445B1AA4B2B3FBFEF00EFB1033CC
:1011C00044EA034400FB0CFCA44509D92C1900F1A6
:1011D000FF3380F00781A44540F2048102382C449B
:1011E00040EA0740A4EB0C0400271EB1D4400023C2
:1011F000C6E900433946BDE8F0878B4209D9002E85
:1012000000F0EB800027C6E9000138463946BDE80A
:10121000F087B3FA83F7002F47D18B4202D3824283
:1012200000F2FA80841A61EB030301209846002E35
:10123000E0D0C6E90048DDE702B9FFDEB2FA82F28B
:10124000002A40F08F80491B4FEA154E1FFA85F89F
:101250000127B1FBFEFC230C0EFB1C1143EA0143EA
:1012600008FB0CF1994207D9EB180CF1FF3002D2C0
:10127000994200F2CD808446591AA3B2B1FBFEF028
:101280000EFB101443EA044408FB00F8A04507D9FC
:101290002C1900F1FF3302D2A04500F2B6801846A7
:1012A000A4EB080440EA0C409FE7C7F1200CBB40C8
:1012B00022FA0CFE4EEA030E01FA07F420FA0CF5AE
:1012C00021FA0CF34FEA1E482543B3FBF8F92C0C26
:1012D00008FB19331FFA8EFA44EA034309FB0AF4A8
:1012E0009C4202FA07F200FA07F10BD91EEB030346
:1012F00009F1FF3080F087809C4240F28480A9F1A0
:10130000020973441B1BADB2B3FBF8F008FB1033AA
:1013100045EA034400FB0AFAA24508D91EEB04047F
:1013200000F1FF336BD2A24569D90238744440EA18
:101330000940A0FB0289A4EB0A044C45C2464B4677
:1013400054D351D0002E69D0B1EB0A0564EB0304ED
:1013500004FA0CFCFD40FC404CEA0505C6E90054CB
:10136000002747E7C2F1200320FA03F7954001FA6E
:1013700002F021FA03F34FEA154E3843010CB3FB98
:10138000FEF71FFA85F80EFB173341EA034107FB0E
:1013900008F38B4204FA02F407D9691807F1FF3CFD
:1013A0002FD28B422DD9023F2944CB1A81B2B3FBF5
:1013B000FEF00EFB103341EA034100FB08F38B42C1
:1013C00007D9691800F1FF3C17D28B4215D90238B2
:1013D0002944C91A40EA07473BE73746304609E740
:1013E0000746E7E61846FBE64145ABD2B8EB020AF2
:1013F00069EB0E0201381346A4E76046E9E7184698
:1014000095E76746D1E781467CE702382C4447E7F9
:10141000ACF1020C2B442FE7384608E73746E9E6E3
:10142000704700BF014B1868704700BF10000020D4
:1014300010B5431E0A44914200D110BD11F8014B72
:1014400003F8014FF7E730B5141E05469BB0184668
:1014500005DA8B232B604FF0FF301BB030BD4FF40B
:101460000273ADF80C3014BF04F1FF33234602932E
:1014700005934FF6FF7300910491ADF80E300246CC
:101480001E9B6946284600F073F8431CBCBF8B23A3
:101490002B60002CE1D0009B00221A70DDE70000D9
:1014A00007B5009313460A46014603480068FFF754
:1014B000CAFF03B05DF804FB100000202DE9F047DF
:1014C0008E689E4282460C469046994637D88A8955
:1014D00012F4906F31D0256809696F1A656902238B
:1014E00005EB450595FBF3F509F101033B449D42EE
:1014F00038BF1D46530530D5294600F071FB06461E
:1015000050B90C23CAF80030A38943F04003A381EB
:101510004FF0FF30BDE8F0873A462169FFF788FFBA
:10152000A38923F4906343F08003A381266165615E
:101530003E44ED1B2660A5604E464E4500D94E4602
:1015400032464146206800F0E3FAA3689B1BA36083
:1015500023681E4426600020DCE72A4600F09AFB40
:1015600006460028E2D12169504600F0EBFAC8E7B0
:101570002DE9F04F9DB0804603938B891D060C46E4
:1015800016460FD50B696BB9402100F029FB20608E
:10159000206128B90C23C8F800304FF0FF30C7E0B5
:1015A000402363610023099320238DF829303023E1
:1015B0008DF82A304FF0010B37463D4615F8013BB8
:1015C0000BB1252B3ED1B7EB060A0BD05346324662
:1015D00021464046FFF772FF013000F0A480099BCE
:1015E000534409933B78002B00F09D8000234FF07B
:1015F000FF32CDE90523049307938DF853301A93F6
:101600002F46052217F8011B4F4800F031FA049BC2
:10161000D0B9D90644BF20228DF853201A0744BF01
:101620002B228DF853202A782A2A15D0079A2F4684
:1016300000200A25394611F8013B303B092B4DD9D2
:10164000B8B10FE02F46B8E73F4A801A0BFA00F016
:10165000184304903D46D3E7039A111D1268039185
:10166000002A01DB079204E0524243F00203079292
:1016700004933B782E2B0CD17B782A2B33D1039B00
:101680001A1D1B680392002BB8BF4FF0FF330237BF
:1016900005932E4D39780322284600F0E9F938B138
:1016A0004023401B03FA00F0049B034301370493DB
:1016B000397827488DF8281006227E1C00F0D8F9CA
:1016C000002838D0234B13BB039B073323F00703B9
:1016D00008330393099B4B4409936DE705FB0232E2
:1016E00001200F46A6E700230137059319460A2576
:1016F000384610F8012B303A092A03D9002BC8D0FC
:101700000591C6E705FB012101230746F0E703AB7E
:1017100000932246104B04A94046AFF30080B0F17D
:10172000FF3F8146D6D1A3895B063FF536AF0998C6
:101730001DB0BDE8F08F03AB00932246064B04A911
:10174000404600F081F8EAE77C1E0008821E00088F
:10175000861E000800000000BD1400082DE9F047B7
:1017600091461F468A680B69DDF820809342B8BF16
:101770001346C9F8003091F8432006460C4612B1D2
:101780000133C9F800302368990642BFD9F8003008
:101790000233C9F80030256815F0060507D104F1B9
:1017A000190AE368D9F800209B1AAB4228DC94F8A8
:1017B00043302268003318BF012392062DD404F170
:1017C000430239463046C047013020D02368E568DF
:1017D000D9F8002003F00603042B08BFAD1AA36854
:1017E00022690CBF25EAE57500259342C4BF9B1A08
:1017F000ED184FF000091A344D451AD1002008E0C9
:101800000123524639463046C047013003D14FF0DC
:10181000FF30BDE8F0870135C3E7E1185A1C3020DE
:1018200081F84300224494F8451082F843100233B3
:10183000C5E70123224639463046C0470130E6D08D
:1018400009F10109D8E700002DE9F04301F1430C4B
:101850000C46097E85B06E291746064698460C9AB6
:1018600000F0B38022D8632936D00AD8002900F0CE
:10187000B980582900F0838004F1420584F84210B1
:1018800032E0642901D06929F6D120681368050681
:1018900003F104012AD51B681160002B03DA2D2205
:1018A0005B4284F843206F480A2239E0732900F034
:1018B0009D8008D86F2920D07029DDD1236843F09E
:1018C0002003236003E0752917D07829D4D1782329
:1018D00084F84530644855E01368191D1B68116091
:1018E00004F1420584F8423001238CE01B6811604A
:1018F00010F0400F18BF1BB2CFE713682568181D02
:101900001060280601D51B6802E06806FBD51B881D
:1019100054486F2914BF0A220822002184F843107A
:101920006568A560002DC0F29580216821F0040152
:101930002160002B3DD1002D40F08E806546082AA5
:101940000BD12368DB0708D5236962689A42DEBFA2
:10195000302305F8013C05F1FF35ACEB05032361AD
:10196000CDF800803B4603AA21463046FFF7F6FE3D
:1019700001304DD14FF0FF3005B0BDE8F08339485C
:1019800084F84510136821681D1D1B6815600A0640
:101990000BD5CA0744BF41F0200121601BB9226862
:1019A00022F0200222601022B7E74D0648BF9BB20A
:1019B000EFE76546B3FBF2F102FB1133C35C05F8B8
:1019C000013D0B460029F5D1B9E713682568616927
:1019D000181D106028061B6801D5196002E06A0610
:1019E000FBD51980002323616546B9E71368191DEB
:1019F00011601D6862680021284600F039F808B1BE
:101A0000401B606063682361002384F84330A7E7CC
:101A100023692A4639463046C0470130AAD0236898
:101A20009B0713D4E068039B9842B8BF1846A3E70E
:101A300001234A4639463046C04701309AD0013525
:101A4000E368039A9B1AAB42F2DCEBE7002504F152
:101A50001909F5E7002BACD1037884F8423004F182
:101A600042056CE78D1E00089E1E00080000000065
:101A700001F0FF01102A2BDB10F0070F08D010F83F
:101A8000013B013A8B422DD010F0070F42B3F6D143
:101A9000F0B441EA012141EA014122F007047FF05C
:101AA00000070023F0E80256083C85EA010586EAB3
:101AB000010685FA47F5A3FA87F586FA47F6A5FAEF
:101AC00087F68EB9EED1F0BC01F0FF0102F00702FB
:101AD00032B110F8013B013A83EA010313B1F8D1A6
:101AE0000020704701387047002D06BF3546033887
:101AF000073815F0010F07D1013015F4807F02BFC0
:101B0000013015F4C03F0130F0BC0138704700BF10
:101B1000884210B501EB020307D8421E99420AD051
:101B200011F8014B02F8014FF8E78342F5D981180B
:101B3000D21AD34200D110BD13F8014D01F8014D66
:101B4000F7E7000038B50546002945D051F8043CB8
:101B50000C1F002BB8BFE41800F0D2F81F4A13681E
:101B6000104633B9636014602846BDE8384000F081
:101B7000C8B8A3420CD921686218934204BF1A68FE
:101B80005B68636004BF521822600460ECE7134690
:101B90005A680AB1A242FAD919685818A0420BD162
:101BA00020680144581882421960DDD110685268DB
:101BB0005A6001441960D7E702D90C232B60D3E7A0
:101BC000206821188A4204BF11685268626004BF0D
:101BD000091821605C60C7E738BD00BF0401002020
:101BE00070B5CD1C25F0030508350C2D38BF0C252C
:101BF000002D064601DBA94203D90C2333600020E7
:101C000070BD00F07DF8214A1468214691B9204C3E
:101C100023681BB9304600F063F82060294630463F
:101C200000F05EF8431C24D10C233360304600F0F2
:101C300068F8E4E70B685B1B18D40B2B0FD90B601B
:101C4000CD50CC18304600F05CF804F10B00231D99
:101C500020F00700C31AD3D05A42E250D0E78C429A
:101C60004B6816BF636013600C46EBE70C4649688F
:101C7000CCE7C41C24F00304A04205D0211A30464E
:101C800000F02EF80130CFD02560DBE70401002002
:101C900008010020F8B5074614460E4621B9114642
:101CA000BDE8F840FFF79CBF22B9FFF74BFF254680
:101CB0002846F8BD00F026F8A0420FD2214638464B
:101CC000FFF78EFF05460028F2D031462246FFF787
:101CD000AFFB31463846FFF735FFE9E73546E7E722
:101CE00038B5064C0023054608462360FEF7DCFFA6
:101CF000431C02D1236803B12B6038BD10010020C2
:101D00007047704751F8043C181F002BBCBF0B589C
:101D1000C0187047537461636B206672616D653AD9
:101D20000A000000205230203D2020253038580A7B
:101D300000000000205231203D2020253038580A74
:101D400000000000205232203D2020253038580A63
:101D500000000000205233203D2020253038580A52
:101D60000000000020523132203D20253038580A32
:101D700000000000204C52203D2020253038580A19
:101D800000000000205043203D2020253038580A14
:101D90000000000020505352203D20253038580AC2
:101DA000000000004653522F4641523A0A000000FC
:101DB0002043465352203D2020253038580A000049
:101DC0002048465352203D2020253038580A000034
:101DD0002044465352203D2020253038580A000028
:101DE0002041465352203D2020253038580A00001B
:101DF000204D4D464152203D20253038580A0000E4
:101E00002042464152203D2020253038580A00000B
:101E10004D6973630A000000204C522F4558435F00
:101E200052455455524E3D20253038580A00000086
:101E30005B486172644661756C745D0A0000000065
:101E40005B4275734661756C745D0A005B55736126
:101E500067654661756C745D0A0000002E2E2F7355
:101E600072632F6D61696E2E630000000000000038
:101E7000000000000102030406070809232D302B8F
:101E80002000686C4C00656667454647003031327B
:101E900033343536373839414243444546003031D2
:0F1EA00032333435363738396162636465660032
:081EB000A4F2FF7F0100000015
:101EB8007856341280000020000000000024F4004E
:101EC80014000020000000000000000000000000D6
:101ED80000000000000000000000000000000000FA
:101EE80000000000000000000000000000000000EA
:101EF80000000000000000000000000000000000DA
:101F080000000000000000000000000000000000C9
:101F180000000000000000000000000000000000B9
:081F280000000000325476981D
:040000050800019955
:00000001FF
